:10000000A1C00000BCC00000BAC00000B8C0000021
:10001000B6C00000B4C00000B2C000000C94B91F0C
:10002000AEC00000ACC00000AAC00000A8C0000024
:10003000A6C000000C94A10F0C943210A0C00000C8
:100040009EC000009CC000009AC0000098C0000044
:1000500096C000000D0A4D6561737572656D656E21
:1000600074204572726F72732E0D0A000D0A4D6571
:10007000617375726D656E742069732074616B694C
:100080006E6720746F6F206C6F6E672E0D0A000D07
:100090000A50726F626C656D7320647572696E6769
:1000A0002073656E736F7220696E697469616C6923
:1000B0007A6174696F6E2E0D0A000D0A53656E73B6
:1000C0006F7220496E697469616C697A6174696FD5
:1000D0006E20776173207375636365737366756CE7
:1000E0002E0D0A004C4544204869676857617465C5
:1000F0007220402025752C2073797374656D5F74B0
:1001000069636B3A25376C75200D0A0025730D0A5B
:10011000002573203D20256420000D0A0A0A476F40
:100120006F646279652E2E2E206E6F20737061636E
:100130006520666F722069646C65207461736B2141
:100140000D0A000011241FBECFE5D8E0DEBFCDBFF1
:1001500010E0A0E6B0E0EEE8F9E402C005900D92F0
:10016000A83EB107D9F717E0A8EEB0E001C01D9294
:10017000AB37B107E1F70E94850A0C94C52440CF44
:100180008F938FB78F93F894809177078F5F8093C9
:100190007707809178078F4F809378078091790750
:1001A0008F4F8093790780917A078F4F80937A07DA
:1001B0008F918FBF8F910895EF92FF920F931F93AE
:1001C0007B018C0120E030E040E05FE48CD38823A9
:1001D0007CF0C801B70120E030E040E05FE460D18E
:1001E000DCD39B01AC01205030404040504805C05A
:1001F000C801B701D2D39B01AC01B901CA011F915B
:100200000F91FF90EF900895A0E0B0E0EAE0F1E0F8
:100210000C94D721DC012B01FA019C91923008F457
:1002200039C1EB018881823008F433C1943069F41C
:10023000843009F02FC111969C91119789819817EC
:1002400009F428C1A0E9B0E025C1843009F421C136
:100250008230A9F4923009F01DC19A01AD0188E005
:10026000EA010990AE01E90109929E018150C1F7AE
:10027000E201898111969C918923818308C1923082
:1002800009F407C112962D903C901397EB018A81D7
:100290009B811496AD90BD90CD90DC901797EC802B
:1002A000FD800E811F819101281B390BB90137FF99
:1002B00004C066277727621B730B603271050CF050
:1002C00061C0121613066CF537014801062E04C0F2
:1002D00096948794779467940A94D2F721E030E05B
:1002E00040E050E004C0220F331F441F551F6A95A1
:1002F000D2F721503040404050402E213F21402332
:100300005123211531054105510521F021E030E04F
:1003100040E050E079018A01E628F72808291929E8
:100320003CC0232BD1F1260E371E35014601062E87
:1003300004C096948794779467940A94D2F721E046
:1003400030E040E050E004C0220F331F441F551F2F
:100350006A95D2F721503040404050402A213B213D
:100360004C215D21211531054105510521F021E088
:1003700030E040E050E059016A01A628B728C828BB
:10038000D9280BC0821593052CF01C01AA24BB248C
:10039000650103C0EE24FF24870111969C91D201D0
:1003A00011968C91981709F445C0992339F0A8014A
:1003B00097012A193B094C095D0906C0A601950160
:1003C0002E193F09400B510B57FD08C01182338293
:1003D000228224833583468357831DC081E0818335
:1003E0003382228288279927DC01821B930BA40B7E
:1003F000B50B84839583A683B7830DC0220F331F6B
:10040000441F551F248335834683578382819381FC
:100410000197938382832481358146815781DA0154
:10042000C9010197A109B1098F5F9F4FAF4FBF432A
:1004300028F30BC0918333822282EA0CFB1C0C1D33
:100440001D1DE482F5820683178383E08083248167
:1004500035814681578157FF1AC0C901AA2797FDE8
:10046000A095BA2F81709070A070B0705695479586
:1004700037952795822B932BA42BB52B84839583BB
:10048000A683B78382819381019693838283DF0160
:1004900001C0D201CD01CDB7DEB7E2E10C94F3216A
:1004A000A0E2B0E0E6E5F2E00C94E32169837A8310
:1004B0008B839C832D833E834F835887E9E0EE2E08
:1004C000F12CEC0EFD1ECE010196B7018ED38E01EC
:1004D0000F5E1F4FCE010596B80187D38A8991E040
:1004E00089278A8BC701B801AE01475E5F4F8CDE5A
:1004F000A7D2A096E6E00C94FF21A0E2B0E0E3E8EA
:10050000F2E00C94E32169837A838B839C832D83AF
:100510003E834F835887F9E0EF2EF12CEC0EFD1E41
:10052000CE010196B70161D38E010F5E1F4FCE0140
:100530000596B8015AD3C701B801AE01475E5F4FB7
:1005400063DE7ED2A096E6E00C94FF21A0E2B0E04C
:10055000ECEAF2E00C94D72169837A838B839C8345
:100560002D833E834F835887CE010196BE01675F7E
:100570007F4F3BD3CE010596BE016F5E7F4F35D3D3
:100580009985923088F089898230C8F0943019F4C6
:10059000823051F404C0843029F4923081F480E92F
:1005A00090E0C6C0923049F420E09A858A89981379
:1005B00021E02A87CE010996BBC0823049F420E0B1
:1005C0009A858A89981321E02A8BCE014196B0C082
:1005D0002D843E844F8458886D887E888F88988CBF
:1005E000EE24FF248701AA24BB24650140E050E0EB
:1005F00060E070E0E0E0F0E0C10181709070892B74
:10060000E9F0E60CF71C081D191D9A01AB012A0D33
:100610003B1D4C1D5D1D80E090E0A0E0B0E0E614C5
:10062000F7040805190520F481E090E0A0E0B0E0AF
:10063000BA01A901480F591F6A1F7B1FAA0CBB1CD6
:10064000CC1CDD1C97FE08C081E090E0A0E0B0E08B
:10065000A82AB92ACA2ADB2A3196E032F10549F0E4
:10066000660C771C881C991C5694479437942794E1
:10067000C3CFFA85EA892B893C898B859C85280F15
:10068000391F2E5F3F4F17C0CA0181709070892BB0
:1006900061F016950795F794E79480E090E0A0E06C
:1006A000B0E8E82AF92A0A2B1B2B7695679557950F
:1006B00047952F5F3F4F77FDE7CF0CC0440F551F85
:1006C000661F771F17FD4160EE0CFF1C001F111FF6
:1006D00021503040403090E0590790E0690790E4A5
:1006E000790760F32B8F3C8FDB01CA018F77907005
:1006F000A070B07080349105A105B10561F447FD8B
:100700000AC0E114F1040105110529F0405C5F4FB6
:100710006F4F7F4F40781A8EFE1711F081E08A8F5D
:100720004D8F5E8F6F8F78A383E0898FCE014996BE
:1007300087D1A096E2E10C94F321A8E1B0E0E3EACE
:10074000F3E00C94DF2169837A838B839C832D8370
:100750003E834F835887B9E0EB2EF12CEC0EFD1E43
:10076000CE010196B70141D28E010F5E1F4FCE011F
:100770000596B8013AD22985223008F47EC039891D
:10078000323010F4B8017CC08A859A8989278A871B
:10079000243011F0223031F4231709F06EC060E9E3
:1007A00070E06EC0343039F41D861E861F86188AAC
:1007B0001C861B8604C0323021F484E08987B7018F
:1007C0005FC02B853C858B899C89281B390B3C8716
:1007D0002B87ED84FE840F851889AD88BE88CF886D
:1007E000D88CEA14FB040C051D0540F4EE0CFF1C2C
:1007F000001F111F215030403C872B8720E030E044
:1008000040E050E080E090E0A0E0B0E460E070E024
:10081000EA14FB040C051D0540F0282B392B4A2B4C
:100820005B2BEA18FB080C091D09B695A79597954F
:100830008795EE0CFF1C001F111F6F5F7F4F6F31FC
:10084000710531F7DA01C9018F779070A070B0702F
:1008500080349105A105B10561F427FD0AC0E114BA
:10086000F1040105110529F0205C3F4F4F4F5F4F08
:1008700020782D873E874F87588BBE01675F7F4F5B
:10088000CB01DED06896EAE00C94FB21A8E1B0E051
:10089000ECE4F4E00C94E32169837A838B839C83FA
:1008A0002D833E834F83588789E0E82EF12CEC0E90
:1008B000FD1ECE010196B70198D18E010F5E1F4F2C
:1008C000CE010596B80191D18985823038F08989A9
:1008D000823020F0C701B80100D201C08FEF6896C6
:1008E000E6E00C94FF21A8E1B0E0E9E7F4E00C9425
:1008F000E32169837A838B839C832D833E834F839B
:10090000588789E0E82EF12CEC0EFD1ECE010196F1
:10091000B7016BD18E010F5E1F4FCE010596B80156
:1009200064D18985823038F08989823020F0C7010E
:10093000B801D3D101C08FEF6896E6E00C94FF2197
:10094000A8E1B0E0E6EAF4E00C94E32169837A835D
:100950008B839C832D833E834F83588789E0E82EC9
:10096000F12CEC0EFD1ECE010196B7013ED18E0199
:100970000F5E1F4FCE010596B80137D189858230B1
:1009800038F08989823020F0C701B801A6D101C0B2
:1009900081E06896E6E00C94FF21ACE0B0E0E3ED86
:1009A000F4E00C94E72169837A838B839C83CE01E6
:1009B0000196BE016B5F7F4F18D18D81823061F14E
:1009C000823050F1843021F48E81882351F12EC081
:1009D0002F81388537FD20C06E812F3131051CF005
:1009E0006623F9F023C08EE190E0821B930B2985EA
:1009F0003A854B855C8504C0569547953795279574
:100A00008A95D2F76623B1F050954095309521959F
:100A10003F4F4F4F5F4F0EC020E030E040E050E0CE
:100A200009C02FEF3FEF4FEF5FE704C020E030E059
:100A300040E050E8B901CA012C96E2E00C94032290
:100A4000DF92EF92FF920F931F93FC01E480F580F9
:100A500006811781D1808081823048F480E090E067
:100A6000A0E1B0E0E82AF92A0A2B1B2BA5C08430AC
:100A700009F49FC0823021F4EE24FF24870105C0D1
:100A8000E114F1040105110519F4E0E0F0E096C06D
:100A9000628173819FEF623879070CF05BC022E8B6
:100AA0003FEF261B370B2A3131052CF020E030E0D8
:100AB00040E050E02AC0B801A701022E04C076959C
:100AC0006795579547950A94D2F781E090E0A0E0AA
:100AD000B0E004C0880F991FAA1FBB1F2A95D2F748
:100AE0000197A109B1098E219F21A023B12300976D
:100AF000A105B10521F081E090E0A0E0B0E09A010D
:100B0000AB01282B392B4A2B5B2BDA01C9018F77DC
:100B10009070A070B07080349105A105B10539F4D2
:100B200027FF09C0205C3F4F4F4F5F4F04C0215C3F
:100B30003F4F4F4F5F4FE0E0F0E02030A0E03A073A
:100B4000A0E04A07A0E45A0710F0E1E0F0E07901E4
:100B50008A0127C06038710564F5FB01E158FF4F39
:100B6000D801C7018F779070A070B0708034910564
:100B7000A105B10539F4E7FE0DC080E490E0A0E0E6
:100B8000B0E004C08FE390E0A0E0B0E0E80EF91E12
:100B90000A1F1B1F17FF05C016950795F794E794CA
:100BA000319687E016950795F794E7948A95D1F7E3
:100BB00005C0EE24FF248701EFEFF0E06E2F67956C
:100BC00066276795902F9F77D794DD24D7948E2F33
:100BD0008695492F462B582F5D29B701CA011F91D1
:100BE0000F91FF90EF90DF900895FC01DB014081B1
:100BF00051812281622F6F7770E0221F2227221FEE
:100C00009381892F880F822B282F30E0991F9927F5
:100C1000991F11969C93119721153105A9F541153E
:100C200051056105710511F482E037C082E89FEF3C
:100C300013969C938E9312979A01AB0167E0220F53
:100C4000331F441F551F6A95D1F783E08C930DC065
:100C5000220F331F441F551F12968D919C9113979D
:100C6000019713969C938E931297203080E038075B
:100C700080E0480780E4580758F314962D933D937D
:100C80004D935C93179708952F3F310579F44115E3
:100C900051056105710519F484E08C93089564FF92
:100CA00003C081E08C9312C01C9210C02F573040BB
:100CB00013963C932E93129783E08C9387E0440F16
:100CC000551F661F771F8A95D1F7706414964D9350
:100CD0005D936D937C93179708951F93DC01FB013F
:100CE0009C91923008F447C08081823008F443C060
:100CF000943051F411961C91843099F58181682FBC
:100D000070E0611B71093FC0843021F0923031F4F2
:100D10008230B9F18181882389F12DC011961C910F
:100D200011978230F1F081811817D9F412962D9124
:100D30003C911397828193818217930794F028172F
:100D40003907BCF014968D919D910D90BC91A02D0A
:100D50002481358146815781281739074A075B0767
:100D600018F4112341F00AC082179307A407B507AE
:100D700040F4112319F061E070E005C06FEF7FEFE0
:100D800002C060E070E0CB011F91089587E886B94A
:100D900080EC87B9D098C898B89AC09A80E0089536
:100DA000FC0187819085BC0180E090E00895369A2F
:100DB0003699FECF64B175B180E090E020E03AE072
:100DC00040E050E00E9482212AE096958795779531
:100DD00067952A95D1F72BE030E040E050E00E9483
:100DE0008221CB010895C098E0E3F2E03197F1F75A
:100DF000DEDF2AE62A95F1F7C09A0895EF92FF9276
:100E00001F93CF93DF93EC011A86198610E050EA06
:100E1000E52E5BE4F52ECE01E6DF9C01C7010197CC
:100E2000F1F782E02E34380730F089859A85820FF9
:100E3000931F9A8789871F5F143169F789859A857F
:100E400064E170E00E94A1217A87698782E06D34B5
:100E5000780718F418861F8210C0CB0144E0880F71
:100E6000991F4A95E1F7860F971F8051974264E6D4
:100E700070E00E94A12178876F8380E0DF91CF919D
:100E80001F91FF90EF900895FC018EE990E091830F
:100E90008083CF0130C00F931F938C018EE990E0C7
:100EA000F80191838083C80126D0C8011FD21F9109
:100EB0000F9108950F931F938C0111D08EE990E04C
:100EC000F8019183808310861782128611861F9104
:100ED0000F9108956FEF7FEF8FEF9FEF0895FC0163
:100EE0008CEA90E081939193DB0185E00D90019273
:100EF0008150E1F70895FC018CEA90E091838083B2
:100F00000895FC018CEA90E091838083089580E04D
:100F1000089580E00895FC01828193810895FC0189
:100F2000848195810895FC018CEA90E0918380830F
:100F3000CF01DCC1CF92DF92EF92FF921F93DF933C
:100F4000CF9300D0CDB7DEB729E0E22EF12CE80E2A
:100F5000F91EC701E0D1182F0E94FF169A838983DA
:100F60008091E8009091E90060E070E04FEF5FEF62
:100F700020E00E940F13112329F48AEE90E06AEB1F
:100F800070E004C08AEE90E06FE870E0A9D680912E
:100F9000E8009091E90060E070E00E946E126E013E
:100FA0000894C11CD11CC7016AEE70E048EE50E005
:100FB000D8D1182F8823F9F08091E8009091E900AA
:100FC00060E070E04FEF5FEF20E00E940F131230FF
:100FD00029F48AEE90E06CE670E004C08AEE90E0BE
:100FE00064E570E07DD68091E8009091E90060E0D2
:100FF00070E00E946E12C60168EC70E00E94C71596
:10100000D2CFFC0184EC90E0918380838281938134
:10101000009711F00C94691508950F931F938C019C
:101020008AEB90E0F80191838083C80109966DD125
:10103000C801E7DFC8015AD11F910F9108950F939E
:101040001F938C018AEB90E0F80191838083C801A3
:1010500009965BD1C801D5DF1F910F910895CF93F9
:10106000DF93EC0184EC90E0998388838A819B81F3
:10107000009711F00E946915CE0138D1DF91CF9110
:101080000895FC0184EC90E09183808382819381B8
:10109000009711F00C9469150895FC01A081B181AD
:1010A00014962D913C911597F901099580E090E0F7
:1010B0000C9469156F927F928F929F92AF92BF921C
:1010C000CF92DF92EF92FF920F934C013B01FB0115
:1010D00060817181028143815481FC0184EC90E044
:1010E000819391938DE498E094017F01CC24DD24D9
:1010F000AA24BB240E94A5148AEB90E0F4019183FA
:101100008083F30180819181F40195838483F301CD
:101110008281F4018683F30183819481F4019087B5
:10112000878386ED90E092878187D4011B96F30137
:10113000379683E001900D928150E1F70F91FF9077
:10114000EF90DF90CF90BF90AF909F908F907F9067
:101150006F9008958F929F92AF92BF92CF92DF923D
:10116000EF92FF921F93DF93CF9300D0CDB7DEB7FE
:101170007C010E94FF169A8389838AB386608ABBAA
:101180006E010894C11CD11C9AEE892E90E0992E14
:1011900084EEA82E80E0B82ED99ADA98D701199655
:1011A0008D919C911A9765E070E00E94A121C60183
:1011B0000E94C715D998DA9AF7018185928565E072
:1011C00070E00E94A121C6010E94C7158091E8002D
:1011D0009091E90060E070E04FEF5FEF20E00E9447
:1011E0000F1380E090E00E944E1B182F80E090E0EB
:1011F0003AD22DB73EB72A5030400FB6F8943EBFD2
:101200000FBE2DBFEDB7FEB73196ADB7BEB7129684
:101210009C928E921197B382A28214831582668368
:101220007783808791874ED2EDB7FEB73A960FB697
:10123000F894FEBF0FBEEDBF8091E8009091E900E9
:1012400060E070E00E946E12A7CF0F931F938C0195
:101250008CEC90E0F80191838083C801D2DEC80154
:1012600045D01F910F910895FC018CEC90E0918383
:101270008083CF01C6CE6F927F928F929F92AF9262
:10128000BF92CF92DF92EF92FF920F934C013B01FE
:10129000FB0160817181028143815481FC0184ECF6
:1012A00090E0819391938DE498E094017F01CC24A8
:1012B000DD24AA24BB240E94A5148CEC90E0F40148
:1012C00091838083D4011496F30187E001900D92FD
:1012D0008150E1F70F91FF90EF90DF90CF90BF909A
:1012E000AF909F908F907F906F9008950C94931182
:1012F0000895FC0186ED90E081939193DB0183E0FA
:101300000D9001928150E1F70895FC0186ED90E087
:101310009183808308950F931F93CF93DF93EC0104
:1013200091E010E007E014C0109FC0011124EA8191
:10133000FB81E80FF91FA081B18114962D913C919A
:101340001597CF01F9010995982F882321F41F5F84
:101350008C81181748F3892FDF91CF911F910F913E
:1013600008953F924F925F926F927F928F929F92D9
:10137000AF92BF92CF92DF920F93DF93CF9300D0C3
:1013800000D000D0CDB7DEB76C015A0100E037E0E5
:10139000332E2AEE822E20E0922E91E1492E91E00A
:1013A000592E8CE0682E81E0782E8DC0039D90012F
:1013B00011243E832D83D6011296ED91FC91139753
:1013C000E20FF31FA081B18116962D913C911797E2
:1013D000CF01F9010995882309F07BC0D601129647
:1013E000ED91FC9113972D813E81E20FF31FA081B7
:1013F000B18118962D913C911997CF01F90109956A
:1014000069837A838B839C83D5018D919C9160E065
:1014100070E04FEF5FEF20E00E940F13F601828132
:1014200093812D813E81820F931F75DDADB7BEB7CD
:101430001A970FB6F894BEBF0FBEADBFEDB7FEB79B
:10144000319612969C928E92119753824282958386
:10145000848389819A81AB81BC8186839783A087AD
:10146000B18730D1ADB7BEB71A960FB6F894BEBFEC
:101470000FBEADBFF601828193812D813E81820F27
:10148000931F4DDD00D000D000D0EDB7FEB73196F0
:10149000ADB7BEB712969C928E92119773826282FC
:1014A000958384830FD1EDB7FEB736960FB6F894C7
:1014B000FEBF0FBEEDBFD5018D919C9160E070E045
:1014C0000E946E120F5FF6018481081708F46ECF38
:1014D00080E026960FB6F894DEBF0FBECDBFCF9149
:1014E000DF910F91DF90CF90BF90AF909F908F9042
:1014F0007F906F905F904F903F900895FC0186ED34
:1015000090E091838083CF01F1CECDB7DEB7C8568E
:10151000D040DEBFCDBFE7E4CE2ED12CCC0EDD1EF9
:10152000C60160E020E036E940E050E000E810E06D
:1015300070E2E72EF12C84D2AAEEB0E0F60182E24E
:1015400001900D928150E1F781E081D79093E900FD
:101550008093E800DE011496E1EEF0E085E0019072
:101560000D928150E1F7CE014896BE016C5F7F4F2E
:10157000A1DCDE019596FE017A9685E001900D9240
:101580008150E1F78EE990E09CA38BA38F8D98A109
:101590009BA78AA789A19AA19DA78CA7FE01319636
:1015A00083E0DF011D928A95E9F711E01B83CE01EC
:1015B00083969A838983CE010996BF019ADEFE0144
:1015C0003E968AE0DF011D928A95E9F780E690E079
:1015D0009F878E87188B80E091E09A8B898B86EDB0
:1015E00090E09C8B8B8BDE015596FE013B9683E051
:1015F00001900D928150E1F789E3E82EF12CEC0E79
:10160000FD1EC701BE01625F7F4F54DD8E01025D8A
:101610001F4FC8016AED70E02EDE0E942F168AEE81
:1016200090E06AE171E05CD3C8011EDEC70107DD0E
:10163000CE0143966ADECE01099667DEEBA1FCA1DE
:101640000190F081E02DCE0183960995CE01489658
:101650001BDC80E090E0C859DF4F0FB6F894DEBF86
:101660000FBECDBF0895A6E0B0E0E9E3FBE00C9427
:10167000E7219E838D830FB6F89480917707909130
:101680007807A0917907B0917A0789839A83AB8311
:10169000BC830FBE8D819E81009751F0ED81FE814C
:1016A00089819A81AB81BC8180839183A283B3833A
:1016B00089819A81AB81BC81BC01CD012696E2E093
:1016C0000C940322A2E0B0E0E8E6FBE00C94E721F2
:1016D000CE010B969A83898302C00E94661EEF8119
:1016E000F885858D8130C9F3EF81F88581E0858F9C
:1016F000EF81F885818D928DEF81F885438D548D32
:10170000E981FA8129853A85BA01A9019F010E94E0
:101710003022EF81F885218D328D8F819885B90136
:1017200007D0EF81F885158E2296E2E00C94032213
:10173000A8E0B0E0EEE9FBE00C94E7219E838D8306
:1017400078876F831C821B828F8198850E94272255
:101750009A83898311C02B813C818F819885FC01FC
:10176000E20FF31F20818B819C8101969C838B83E8
:101770008D819E81622F0BD02B813C8189819A8142
:101780002817390740F32896E2E00C940322A6E2DA
:10179000B0E0EDECFBE00C94E7219AA389A36BA3E6
:1017A00089A19AA10D9698A38F8F8F8D98A19E8F56
:1017B0008D8F0FB6F8940F92ED8DFE8D8081918103
:1017C0009C8F8B8F0F900FBE8B8D9C8D9C01EF8D0E
:1017D000F8A1828593851DA22817390711F481E0AD
:1017E0008DA38DA1882309F03EC089A19AA10D96F1
:1017F000998F888F8BA18A8F888D998DFC01F98FA5
:10180000E88FE88DF98D0280F381E02D8A8D808349
:10181000E88DF98D828193810196E88DF98D93830E
:101820008283E88DF98D22813381E88DF98D808561
:1018300091852817390741F4E88DF98D86819781C4
:10184000E88DF98D938382830FB6F8940F92E88D1B
:10185000F98D808191810196E88DF98D9183808346
:101860000F900FBED6C080E090E0A0EEB1E48C8B6C
:101870009D8BAE8BBF8B6C897D898E899F8920E083
:1018800030E04AEF54E40E94A602DC01CB01888BD1
:10189000998BAA8BBB8B688979898A899B8920E07F
:1018A00030E040E85FE34CD888232CF481E090E0FE
:1018B0009F878E873FC0688979898A899B8920E0C4
:1018C0003FEF4FE757E40E94460418164CF56C8929
:1018D0007D898E899F8920E030E040E251E40E94BA
:1018E000A602DC01CB01BC01CD010E94DC00DC01C1
:1018F000CB019F878E870FC088EC90E09D878C87F7
:101900008C859D850197F1F79D878C878E859F85B6
:1019100001979F878E878E859F85009769F714C0F2
:10192000688979898A899B890E94DC00DC01CB0166
:101930009F878E878E859F859B878A878A859B85D3
:101940000197F1F79B878A8789A19AA10D969987BC
:101950008887888599859F838E830FB6F8940F9228
:10196000EE81FF81808191819D838C830F900FBEDA
:101970008C819D819C01E885F985828593851CA2D7
:101980002817390711F481E08CA38CA1882309F072
:101990003EC089A19AA10D969A8389838BA18B83DE
:1019A00089819A81FC01FA83E983E981FA810280C5
:1019B000F381E02D8B818083E981FA81828193819B
:1019C0000196E981FA8193838283E981FA812281F8
:1019D0003381E981FA81808591852817390741F49F
:1019E000E981FA8186819781E981FA8193838283F3
:1019F0000FB6F8940F92E981FA8180819181019666
:101A0000E981FA81918380830F900FBE02C01EA2EC
:101A100012C0E9A1FAA18081882F90E0009682305F
:101A2000910538F4AAE2B0E0EAE2F0E08081806259
:101A30008C9381E08EA38EA1A696E2E00C94032203
:101A4000A5E4B0E0E6E2FDE00C94E32121969FAF2F
:101A50008EAF21976EAB2FAB38AF49AF5AAF1CAFEB
:101A60000BAFFEAEEDAE8DAD9EAD81D39B8B8A8B61
:101A70008A899B89009709F43DC0CE01449601965E
:101A800098878F838A899B899A8789878DAD9EAD38
:101A90009C878B878F819885FC01F887EF830FB631
:101AA000F8940F92EF81F8851182108289859A85CA
:101AB000EF81F8859383828389859A85EF81F88504
:101AC00095838483EF81F88589859A8597838683BA
:101AD00029853A858B859C85820F931FEF81F88538
:101AE00091878087EF81F8858B859C859387828796
:101AF0000F900FBE8BAD9CAD3AD39B8B8A8B8A899E
:101B00009B89009709F43DC0CE0144960D969A83B7
:101B100089838A899B899C838B838BAD9CAD9E83B3
:101B20008D8389819A81FC01FA83E9830FB6F89449
:101B30000F92E981FA81118210828B819C81E98167
:101B4000FA81938382838B819C81E981FA819583D9
:101B50008483E981FA818B819C81978386832B81A1
:101B60003C818D819E81820F931FE981FA8191874B
:101B70008087E981FA818D819E81938782870F908A
:101B80000FBE8BAD9CADF3D29EA78DA78DA59EA554
:101B9000009711F41EA61DA68EA98C8B8BAD9CAD53
:101BA00098AB8FA719AA8FA998ADA9ADBAAD8AAB8A
:101BB0009BABACABBDAB0FB6F8940F928C89882F62
:101BC00090E0009709F047C08FA998ADA9ADBAADD4
:101BD000880F991FAA1FBB1F880F991FAA1FBB1F21
:101BE000880F991FAA1FBB1F880F991FAA1FBB1F11
:101BF0009C01AD0180E092E1AAE7B0E0BC01CD011B
:101C00000E94B521DA01C9010197A109B1098E87A6
:101C10009F87A88BB98B8E858D87E9E2F0E08D8553
:101C200080838E859F85A889B989892F9A2FAB2FAC
:101C3000BB278E879F87A88BB98B8E858D87E0E425
:101C4000F0E08D858083E0E4F0E08EE88083EAE2D6
:101C5000F0E088E980830F900FBE21968EAD9FAD96
:101C6000219723969FAF8EAF2397FE0174962596FA
:101C7000FFAFEEAF2597F2E22696FFAF26972596A7
:101C8000EEADFFAD2597008025968EAD9FAD2597D3
:101C9000019625969FAF8EAF25972396EEADFFADAB
:101CA0002397008223968EAD9FAD239701962396AE
:101CB0009FAF8EAF239726969FAD2697915026967D
:101CC0009FAF26972696EFAD2697EE23C1F6219675
:101CD0008EAD9FAD2197CB5BDF4FE6E00C94FF21EB
:101CE000ABE0B0E0E6E7FEE00C94E7219987888757
:101CF0007B876A871F821E828A859B850E940E22AF
:101D00009D838C8316C02A853B858E819F81820F9F
:101D1000931F9B838A838E819F8101969F838E83ED
:101D2000EA81FB8184918983298188859985622F45
:101D30000BD02E813F818C819D812817390718F3A4
:101D40002B96E2E00C940322ABE1B0E0EAEAFEE07D
:101D50000C94E7219A8F898F6B8FBEC080E090E052
:101D6000A8ECB1E48D8B9E8BAF8BB88F6D897E898B
:101D70008F89988D2BEA3AEA4AE250E40E94A60243
:101D8000DC01CB01898B9A8BAB8BBC8B69897A89FF
:101D90008B899C8920E030E040E85FE30E94A0044A
:101DA00088231CF481E0888B91C069897A898B89AA
:101DB0009C8920E030E04FE753E40E944604181667
:101DC0000CF07BC06D897E898F89988D20E030E092
:101DD0004AE754E40E949D03DC01CB018C879D8778
:101DE000AE87BF876C857D858E859F8520E030E03E
:101DF0004AEF54E40E94A602DC01CB018887998750
:101E0000AA87BB87688579858A859B8520E030E035
:101E100040E85FE30E94A00488232CF481E090E076
:101E20009F838E833FC0688579858A859B8520E066
:101E30003FEF4FE757E40E94460418164CF56C85B7
:101E40007D858E859F8520E030E040E251E40E9450
:101E5000A602DC01CB01BC01CD010E94DC00DC014B
:101E6000CB019F838E830FC088EC90E09D838C8391
:101E70008C819D810197F1F79D838C838E819F8159
:101E800001979F838E838E819F81009769F724C07D
:101E9000688579858A859B850E94DC00DC01CB0101
:101EA0009F838E838E819F819B838A838A819B817E
:101EB0000197F1F79B838A830FC069897A898B899F
:101EC0009C890E94DC00DC01CB01888B8889898396
:101ED00089818A95F1F78983898D9A8D14D0882319
:101EE00009F43CCFE98DFA8D8081882F90E000962F
:101EF0008230910520F4ECE2F0E08B8D80836B96CC
:101F0000E2E00C940322A3E0B0E0E9E8FFE00C94E7
:101F1000E7219A838983E981FA818081882F90E083
:101F200000968230910538F4EBE2F0E08081982F42
:101F300090729B8301C01B828B812396E2E00C94FC
:101F400003221F920F920FB60F9211242F933F93EB
:101F50008F939F93EF93FF93DF93CF93CDB7DEB72C
:101F60002897DEBFCDBFEBE2F0E08081882F90E0C4
:101F70008C719070009751F003C0ECE2F0E080812A
:101F8000EBE2F0E080818823C4F35CC0ECE2F0E097
:101F900080818F830FB6F8940F928091EB0090911F
:101FA000EC009D838C830F900FBE8C819D819C01E2
:101FB0008091F5009091F6001E822817390711F4E0
:101FC00081E08E838E81882309F03CC08BEE90E007
:101FD0009A8389838F818B8389819A81FC01FA831B
:101FE000E983E981FA810280F381E02D8B8180838E
:101FF000E981FA81828193810196E981FA81938353
:102000008283E981FA8122813381E981FA818085A5
:1020100091852817390741F4E981FA8186819781F2
:10202000E981FA81938382830FB6F8940F92E98154
:10203000FA81808191810196E981FA81918380837F
:102040000F900FBE2896DEBFCDBFCF91DF91FF91DD
:10205000EF919F918F913F912F910F900FBE0F9015
:102060001F9018951F920F920FB60F9211242F9365
:102070003F938F939F93AF93BF93EF93FF93DF9320
:10208000CF93CDB7DEB72897DEBFCDBF0FB6F8949C
:102090000F928091F7009091F8009D838C830F90B0
:1020A0000FBE8C819D811E82009711F481E08E838A
:1020B0008E81882341F0AAE2B0E0EAE2F0E080817C
:1020C0008F7D8C9342C0ECE2F0E0F887EF8387EFDE
:1020D00090E09B838A838A819B81FC01FB83EA8356
:1020E000EA81FB810480F581E02D80818983EA818A
:1020F000FB81848195810196EA81FB8195838483AC
:10210000EA81FB8124813581EA81FB81808591858B
:102110002817390741F4EA81FB8186819781EA819A
:10212000FB81958384830FB6F8940F92EA81FB813B
:10213000808191810197EA81FB81918380830F9057
:102140000FBE8981EF81F88580832896DEBFCDBFE1
:10215000CF91DF91FF91EF91BF91AF919F918F91BF
:102160003F912F910F900FBE0F901F901895AEE0EA
:10217000B0E0EDEBF0E10C94E7219E878D871E82A5
:102180001D82A8D580910C01882321F42ED181E0F5
:1021900080930C018D859E85009751F08091E6001B
:1021A0009091E7002D853E85820F931F9E878D8736
:1021B0008D859E85009709F4AFC08D859E8525E0AD
:1021C000893F920708F0A8C087E097E09A8789873F
:1021D00080910707909108079C878B870AC08B85A1
:1021E0009C859A878987EB85FC85808191819C8776
:1021F0008B87EB85FC85228133818D859E85281711
:10220000390730F4EB85FC8580819181009739F79F
:102210008B859C8547E08B30940709F47DC0E98568
:10222000FA85208131818091E6009091E700820F4C
:10223000931F9E838D83EB85FC8580819181E98549
:10224000FA8591838083EB85FC85228133818D859E
:102250009E85281B390B8091E6009091E700880F3E
:10226000991F8217930708F047C02B853C858D8501
:102270009E85820F931F98878F83EB85FC85228133
:1022800033818D859E85A901481B590BCA01EF81B9
:10229000F88593838283EB85FC858D859E8593836A
:1022A0008283EF81F885828193819A83898387E095
:1022B00097E09C838B8306C0EB81FC8180819181B8
:1022C0009C838B83EB81FC810190F081E02D228146
:1022D000338189819A812817390770F3EB81FC815A
:1022E00080819181EF81F88591838083EB81FC81EE
:1022F0008F819885918380832091980030919900F7
:10230000EB85FC8582819381A901481B590BCA0189
:102310009093990080939800ECD48D819E812E96A5
:10232000E2E00C940322AAE0B0E0E9E9F1E10C94C8
:10233000E7219A87898789859A8598878F838985F8
:102340009A85009709F44DC08091E6009091E700CE
:1023500022273327281B390B8F819885820F931FE3
:1023600098878F838F8198859E838D83B3D4ED81E9
:10237000FE81828193819A83898387E097E09C83A1
:102380008B8306C0EB81FC81808191819C838B8350
:10239000EB81FC810190F081E02D228133818981E4
:1023A0009A812817390770F3EB81FC818081918134
:1023B000ED81FE8191838083EB81FC818D819E8103
:1023C00091838083ED81FE81228133818091980009
:1023D00090919900820F931F909399008093980099
:1023E00088D42A96E2E00C940322A4E0B0E0EBEF5C
:1023F000F1E10C94E7218EE091E09A838983898151
:102400009A81909308078093070710920A07109209
:10241000090789EF95E090930E0780930D071092BE
:102420000C0710920B0789819A819C838B83EB8127
:10243000FC8189EF95E093838283EB81FC818BE0C3
:1024400097E0918380832496E2E00C940322A3E03A
:10245000B0E0EDE2F2E10C94E7218B838FE190E0B4
:1024600086DE9A83898389819A81009789F1E9813F
:10247000FA8113821282E981FA8111821082E98144
:10248000FA8115821482E981FA8117821682E98124
:10249000FA81128EE981FA8181E0838FE981FA81E4
:1024A000148EE981FA818FEF858FE981FA818FEFB0
:1024B000868F89819A8108960E94682089819A81F5
:1024C00041960E94682089819A8160E070E006D080
:1024D00089819A812396E2E00C940322ACE0B0E07B
:1024E000E4E7F2E10C94E721998788877B876A8784
:1024F0001C821B82888599859A8389830FB6F894FC
:102500000F92E981FA81928DE981FA81838D981782
:1025100080F5E981FA8180819181009759F4E98100
:10252000FA81828193810E94371C8B83E981FA8131
:1025300013821282E981FA81828D8F5FE981FA81AB
:10254000828FE981FA818189882349F089819A8182
:1025500041960DD6813041F40E94661E05C08B81E4
:10256000882311F00E94661E0F900FBE81E08C87B9
:1025700051C08A859B85009721F40F900FBE1C8661
:1025800049C08C81882329F4CE01059654D681E078
:102590008C830F900FBE9ED30FB6F8940F92E981F3
:1025A000FA81858D8F3F19F4E981FA81158EE981D1
:1025B000FA81868D8F3F19F4E981FA81168E0F908A
:1025C0000FBECE0105969E01265F3F4FB9014CD646
:1025D0008823D9F489819A819AD1882389F08981C5
:1025E0009A8108962A853B85B90181D589819A818E
:1025F00023D17FD3882309F081CF0E94661E7ECF2E
:1026000089819A8119D175D379CF89819A8114D121
:1026100070D31C868C852C96E2E00C940322A0E1FA
:10262000B0E0E5E1F3E10C94E7219A8789877C87A4
:102630006B875E874D872F871D8289859A859A8350
:1026400089830FB6F8940F92E981FA81828D8823ED
:1026500009F448C0E981FA81868197819C838B8344
:1026600089819A812B853C85B901A2D08F858823E9
:1026700009F5E981FA81828D8150E981FA81828FA1
:10268000E981FA8180819181009731F40E94A01C38
:10269000E981FA8193838283E981FA8180858823A5
:1026A000E1F089819A81089662D58130B1F40E9467
:1026B000661E13C0E981FA818B819C819783868392
:1026C000E981FA818189882341F089819A81419643
:1026D0004ED5882311F00E94661E0F900FBE81E038
:1026E000888B61C08D859E85009721F40F900FBE69
:1026F000188A59C08D81882329F4CE0106969BD56E
:1027000081E08D830F900FBEE5D20FB6F8940F9243
:10271000E981FA81858D8F3F19F4E981FA81158E5F
:10272000E981FA81868D8F3F19F4E981FA81168E4D
:102730000F900FBECE0106969E01235F3F4FB90159
:1027400093D5882359F589819A81C6D0882309F1C8
:10275000E981FA8180819181009751F40FB6F89454
:102760000F92E981FA8182819381FDD70F900FBE8C
:1027700089819A8141962D853E85B901B8D4898198
:102780009A815AD0B6D2882309F05BCF0E94661E88
:1027900058CF89819A8150D0ACD253CF89819A8108
:1027A0004BD0A7D2188A88896096E2E00C94032265
:1027B000A4E0B0E0EEEDF3E10C94E7219A83898385
:1027C0007C836B83E981FA81848D882389F1E98197
:1027D000FA8126813781E981FA81848D882F90E002
:1027E000820F931FE981FA8197838683E981FA81B9
:1027F00026813781E981FA818281938128173907FF
:1028000040F0E981FA8180819181E981FA819783A1
:102810008683E981FA8146815781E981FA81848D35
:10282000282F30E08B819C81BA01A9010E941722D8
:102830002496E2E00C940322A2E0B0E0E2E2F4E1AC
:102840000C94E7219A8389830FB6F8940F9213C0F2
:10285000E981FA818189882399F089819A81419659
:1028600086D4882309F063D5E981FA81868D815069
:10287000E981FA81868FE981FA81868D181644F301
:10288000E981FA818FEF868F0F900FBE0FB6F89413
:102890000F9213C0E981FA818085882399F089819C
:1028A0009A81089664D4882309F041D5E981FA8198
:1028B000858D8150E981FA81858FE981FA81858D45
:1028C000181644F3E981FA818FEF858F0F900FBEC0
:1028D0002296E2E00C940322A3E0B0E0E2E7F4E108
:1028E0000C94E7219B838A830FB6F8940F92EA81B8
:1028F000FB81828D882319F481E0898301C01982CC
:102900000F900FBE89812396E2E00C940322A3E08E
:10291000B0E0EDE8F4E10C94E7219B838A830FB6E5
:10292000F8940F92EA81FB81928DEA81FB81838D7D
:10293000981719F481E0898301C019820F900FBEA6
:1029400089812396E2E00C940322A4E1B0E0EBEA53
:10295000F4E10C94DF219F838E83798768875B87FE
:102960004A873D872C870E87F88AEF86DA8AC98ADC
:10297000BC8AAB8A8A859B8529893A89B9011DD68B
:102980009C838B838B819C81009709F48AC0EB81A7
:10299000FC812789308D8A859B850197820F931F43
:1029A0009A8389838B819C8128853985EB89FC8971
:1029B000AA85BB85B9014E859F018D01D5D489813A
:1029C0009A812E813F814C855D85B901D2D7EB81FB
:1029D000FC81918380838F859889009731F0EF8502
:1029E000F8898B819C81918380830FB6F8940F9234
:1029F000809112078F5F8093120780910F0790914B
:102A00001007009761F48B819C819093100780934D
:102A10000F07809112078130A1F419D512C080915F
:102A20001607882371F4E0910F07F091100796893B
:102A30008E85891730F08B819C819093100780934D
:102A40000F0780911A078F5F80931A07EB81FC8133
:102A5000968980911507891728F4EB81FC81868976
:102A600080931507EB81FC818689282F30E0C9010E
:102A7000880F991F880F991F880F991F820F931F26
:102A8000AC01425E584F8B819C819C012E5F3F4F71
:102A9000CA01B9010E949E2081E08D830F900FBE74
:102AA00002C08FEF8D838D81813071F48091160784
:102AB000882351F0E0910F07F091100796898E85D9
:102AC000981710F40E94661E8D816496EAE00C94BB
:102AD000FB21A6E0B0E0EFE6F5E10C94E7219C8352
:102AE0008B830FB6F8940F928B819C81009739F4F9
:102AF00080910F07909110079E838D8304C08B8176
:102B00009C819E838D838D819E819A838983898117
:102B10009A8102960E943B21E981FA8184899589F4
:102B2000009729F089819A810C960E943B21898126
:102B30009A819C012E5F3F4F81E697E0B9010E9488
:102B40009E20809111078F5F8093110780911A0753
:102B50008F5F80931A070F900FBE8091160788230E
:102B600091F020910F073091100789819A81821787
:102B7000930719F40E94661E06C00FB6F8940F92D0
:102B8000C9D50F900FBE2696E2E00C940322AAE06E
:102B9000B0E0EDECF5E10C94E72198878F837A871C
:102BA00069871B8297D080911307909114079A83AD
:102BB0008983EF81F8852081318189859A85820F0B
:102BC000931F9E838D83EF81F885208131818981D8
:102BD0009A818217930798F4EF81F88520813181DB
:102BE0008D819E8182179307E0F42D813E8189813A
:102BF0009A8182179307A8F481E08B8312C0EF813A
:102C0000F885208131818D819E818217930738F06C
:102C10002D813E8189819A818217930710F481E08A
:102C20008B83EF81F8858D819E81918380838B8159
:102C3000882351F080910F079091100702960E940F
:102C40003B218D819E8174D454D08C838C818823C8
:102C500011F40E94661E2A96E2E00C940322AF92C1
:102C6000BF92CF92DF92EF92FF920F93DF93CF93B9
:102C70000F92CDB7DEB784EA99E12BE830E0B901D5
:102C800045E550E020E030E000E0EE24FF24CC24D5
:102C9000DD24AA24BB2459DE89838981813079F41B
:102CA000F8948FEF9FEF90931C0780931B0781E0B0
:102CB000809316071092140710921307D2D70F9023
:102CC000CF91DF910F91FF90EF90DF90CF90BF9069
:102CD000AF900895A0E0B0E0E0E7F6E10C94E721C2
:102CE00080911D078F5F80931D072096E2E00C9472
:102CF0000322A3E0B0E0EFE7F6E10C94E7211982AC
:102D00000FB6F8940F9280911D07815080931D0794
:102D100080911D07882309F06BC0809112078823DA
:102D200009F466C045C0E0915D07F0915E078681B9
:102D300097819B838A838A819B810C960E943B2189
:102D40008A819B8102960E943B21EA81FB819689C0
:102D500080911507891728F4EA81FB818689809381
:102D60001507EA81FB818689282F30E0C901880F89
:102D7000991F880F991F880F991F820F931FAC010D
:102D8000425E584F8A819B819C012E5F3F4FCA0152
:102D9000B9010E949E20EA81FB819689E0910F078C
:102DA000F09110078689981718F081E08093180732
:102DB00080915807882309F0B6CF809117078823A0
:102DC00081F00BC033D0882319F081E0809318077D
:102DD00080911707815080931707809117078823E8
:102DE00089F780911807813019F481E089836ED7C3
:102DF0000F900FBE89812396E2E00C940322A2E09B
:102E0000B0E0E5E0F7E10C94E7210FB6F8940F92FB
:102E100080911307909114079A8389830F900FBEB6
:102E200089819A812296E2E00C940322A9E0B0E025
:102E3000ECE1F7E10C94E7211D8280911D078823C6
:102E400009F0C1C0809113079091140701969093E7
:102E500014078093130780911307909114079C83A4
:102E60008B838B819C810097D1F480915407909142
:102E700055079A83898380915607909157079093BD
:102E800055078093540789819A81909357078093BF
:102E90005607809119078F5F809319073BD42091C3
:102EA0001B0730911C078B819C818217930708F4C4
:102EB00071C0E0915407F09155078081882339F45F
:102EC0008FEF9FEF90931C0780931B0763C0E091E7
:102ED0005407F09155070580F681E02D8681978192
:102EE00099878887E885F985828193819F838E837E
:102EF0002B813C818E819F812817390738F48E8180
:102F00009F8190931C0780931B0744C088859985F7
:102F100002960E943B21E885F9858489958900976E
:102F200029F0888599850C960E943B21E885F985D2
:102F3000968980911507891728F4E885F98586898F
:102F400080931507E885F9858689282F30E0C90127
:102F5000880F991F880F991F880F991F820F931F41
:102F6000AC01425E584F888599859C012E5F3F4F8A
:102F7000CA01B9010E949E20E885F9859689E091F1
:102F80000F07F09110078689981708F492CF81E017
:102F90008D838FCFE0910F07F09110078689282F3E
:102FA00030E0C901880F991F880F991F880F991F5A
:102FB000820F931FFC01E25EF84F8081823040F067
:102FC00081E08D8305C0809117078F5F809317077D
:102FD00080911807882311F081E08D838D812996D7
:102FE000E2E00C940322A2E0B0E0E9EFF7E10C94F8
:102FF000E72180911D07882321F081E08093180745
:1030000072C010921807E0910F07F091100720810D
:103010003181E0910F07F09110078789908D821719
:10302000930790F080910F079091100720910F0760
:1030300030911007275E3F4FB901CED705C0809170
:10304000150781508093150780911507282F30E0D0
:10305000C901880F991F880F991F880F991F820F28
:10306000931FFC01E25EF84F8081882341F3809139
:103070001507282F30E0C901880F991F880F991F65
:10308000880F991F820F931F825E984F9A838983BE
:10309000E981FA810180F281E02D82819381E981C9
:1030A000FA8192838183E981FA8121813281898148
:1030B0009A8103962817390759F4E981FA8101802A
:1030C000F281E02D82819381E981FA81928381836B
:1030D000E981FA810180F281E02D868197819093C8
:1030E000100780930F072296E2E00C940322A6E0DB
:1030F000B0E0EDE7F8E10C94E7219C838B837E83BD
:103100006D8380910F07909110079C01245F3F4FC2
:103110008B819C81B9010E94DA2080910F079091E8
:10312000100702960E943B218D819E812FEF8F3FD9
:10313000920761F480910F07909110079C012E5F18
:103140003F4F8AE697E0B901F9D70DC020911307E8
:10315000309114078D819E81820F931F9A838983FA
:1031600089819A81E5D12696E2E00C940322A5E0BC
:10317000B0E0EDEBF8E10C94E7219D838C83EC81CA
:10318000FD810580F681E02D868197819B838A836E
:103190008A819B810C960E943B2180911D07882388
:1031A00059F58A819B8102960E943B21EA81FB812D
:1031B000968980911507891728F4EA81FB81868911
:1031C00080931507EA81FB818689282F30E0C901A9
:1031D000880F991F880F991F880F991F820F931FBF
:1031E000AC01425E584F8A819B819C012E5F3F4F0C
:1031F000CA01B901A3D709C08A819B819C01245FC0
:103200003F4F88E597E0B90199D7EA81FB8196891C
:10321000E0910F07F09110078689891730F481E05B
:10322000898381E08093180701C0198289812596DE
:10323000E2E00C940322A2E0B0E0E1E2F9E10C94B8
:10324000E7219A83898380911907E981FA81808334
:103250008091130790911407E981FA819283818309
:103260002296E2E00C940322A7E0B0E0EAE3F9E161
:103270000C94E7219D838C837F836E830FB6F89433
:103280000F9280911307909114079A838983EE819E
:10329000FF81808191812FEF8F3F920711F41B8274
:1032A0003FC0EC81FD81908180911907981761F0F2
:1032B000EC81FD812181328189819A818217930776
:1032C00018F081E08B832CC0EC81FD81218132815B
:1032D00089819A81AC01421B530B9A01EE81FF81D7
:1032E0008081918128173907C8F4EE81FF814081E0
:1032F0005181EC81FD812181328189819A81B901DD
:10330000681B790BCB01840F951FEE81FF819183A0
:1033100080838C819D818FDF1B8202C081E08B8343
:103320000F900FBE8B812796E2E00C940322A0E061
:10333000B0E0EDE9F9E10C94E72181E08093180712
:103340002096E2E00C940322A2E0B0E0EAEAF9E180
:103350000C94E7219A838983B4D080911E07823030
:1033600008F0B4D408D6F8CFAAE0B0E0EAEBF9E16F
:103370000C94E5219B838A837D836C834E833887FD
:103380002F831A870987198221C08981482F50E02D
:103390008981282F30E08C819D81FC01E20FF31F91
:1033A00020818A819B81840F951FFC01799620835F
:1033B0008981282F30E08C819D81FC01E20FF31F71
:1033C0008081882331F089818F5F8983898188306A
:1033D000E0F2EA81FB8110A28E81843010F083E05C
:1033E0008E83EA81FB818E81868BEA81FB818E81CF
:1033F00081A3EA81FB8112A28A819B81029690D6E9
:103400008A819B810C968CD6EA81FB818A819B8183
:10341000918780878E81282F30E084E090E0821BA6
:10342000930BEA81FB8195878487EA81FB818A81FE
:103430009B81938B828BEA81FB8113A214A215A23C
:1034400016A2EA81FB8117A22A96E4E0DAC7A1E07E
:10345000B0E0ECE2FAE1BBC7198212C08981282FE3
:1034600030E0C901880F991F880F991F880F991F95
:10347000820F931F825E984F2BD689818F5F89833D
:103480008981843058F382E497E022D68BE497E078
:103490001FD688E597E01CD681E697E019D68AE624
:1034A00097E016D682E497E09093550780935407EF
:1034B0008BE497E090935707809356072196E2E0BC
:1034C000A2C7A3E0B0E0E6E6FAE181C72AC002DCC9
:1034D000809161071B82882311F481E08B8309DCD2
:1034E0008B818823F1F40FB6F8940F92E091660770
:1034F000F0916707868197819A83898389819A8170
:103500000296B9D68091120781508093120780915C
:1035100011078150809311070F900FBE89819A8106
:10352000E5D080911107882391F62396E2E06BC7DE
:10353000A2E0B0E0EDE9FAE14AC79A838983E0911D
:103540000F07F091100789819A81938382832091DC
:1035500013073091140789819A818217930768F4C1
:10356000809156079091570720910F0730911007CF
:103570002E5F3F4FB9011ED61DC040915407509198
:10358000550780910F07909110079C012E5F3F4FC8
:10359000CA01B9010FD620911B0730911C07898100
:1035A0009A818217930730F489819A8190931C073E
:1035B00080931B072296E2E026C7AAE0B0E0E2EE85
:1035C000FAE105C79E838D8378876F838F81988505
:1035D000009739F48D819E810E94B7109A87898760
:1035E00004C08F8198859A87898789859A859A836F
:1035F000898389819A810097B1F088E290E00E94E6
:10360000B7109C838B838B819C81009739F0EB8171
:10361000FC8189819A81908F878B07C089819A81EB
:103620000E94931102C01C821B828B819C81009797
:1036300051F0EB81FC818789908D2D813E8165EA77
:1036400070E0A901FDD68B819C812A96E2E0DBC661
:10365000A6E0B0E0EDE2FBE1BAC69E838D8319825D
:103660001A821B821C8210C08D819E8101969E83CE
:103670008D8389819A81AB81BC810196A11DB11D89
:1036800089839A83AB83BC83ED81FE818081853AF7
:1036900059F389819A812696E2E0B5C6A9E0B0E0A7
:1036A000E3E5FBE194C69F838E838E819F81009723
:1036B00039F480910F07909110079987888704C08B
:1036C0008E819F8199878887888599859D838C8342
:1036D000EC81FD818789908D9B838A838A819B8180
:1036E000B7DF898389812996E2E08DC6A2E0B0E048
:1036F000EBE7FBE16CC69A838983E981FA818789CC
:10370000908D0E94931189819A810E949311229633
:10371000E2E079C6A2E0B0E0EFE8FBE158C6E09154
:103720005407F09155078081882339F48FEF9FEF7C
:1037300090931C0780931B0713C0E0915407F091EE
:1037400055070580F681E02D868197819A838983CC
:10375000E981FA818281938190931C0780931B07F2
:103760002296E2E050C6A4E0B0E0E8EBFBE12FC611
:103770009C838B838B819C819A8389838B819C81A1
:10378000009709F471C0E981FA819689E0910F07E9
:10379000F09110078689981708F066C0E981FA81D0
:1037A0008485958599237CF0E0910F07F0911007AF
:1037B0008689282F30E084E090E0821B930BE9811A
:1037C000FA8195878487E981FA8142855385E98169
:1037D000FA818689282F30E0C901880F991F880F48
:1037E000991F880F991F820F931F825E984F481769
:1037F000590791F589819A8102963DD5E0910F078D
:10380000F09110078689E981FA81868BE981FA8136
:10381000968980911507891728F4E981FA818689AC
:1038200080931507E981FA818689282F30E0C90144
:10383000880F991F880F991F880F991F820F931F58
:10384000AC01425E584F89819A819C012E5F3F4FA7
:10385000CA01B90173D408C0E0910F07F0911007B5
:103860008689E981FA81868B2496E2E0CCC5A5E0C1
:10387000B0E0ECE3FCE1ABC59D838C838C819D8142
:103880009B838A8319828C819D81009709F454C09F
:10389000EA81FB8182A18150EA81FB8182A3EA81D6
:1038A000FB819689EA81FB8181A1981709F444C0C4
:1038B000EA81FB8182A1882309F03EC08A819B8135
:1038C0000296D9D4EA81FB8181A1EA81FB81868BB2
:1038D000EA81FB818689282F30E084E090E0821B1A
:1038E000930BEA81FB8195878487EA81FB81968926
:1038F00080911507891728F4EA81FB8186898093D6
:103900001507EA81FB818689282F30E0C901880FDD
:10391000991F880F991F880F991F820F931FAC0161
:10392000425E584F8A819B819C012E5F3F4FCA01A6
:10393000B90104D481E0898389812596E2E063C5D9
:10394000A0E0B0E0E5EAFCE142C580910F0790916C
:103950001007009739F0E0910F07F091100782A14E
:103960008F5F82A380910F07909110072096E2E06D
:103970004AC5A8E0B0E0EEEBFCE129C59C838B834F
:103980007E836D8358874F83EB81FC8181E1808347
:103990008B819C8101979C838B83EB81FC8182E2EC
:1039A00080838B819C8101979C838B83EB81FC813D
:1039B00083E380838B819C8101979C838B838D81A2
:1039C0009E819A8389838981EB81FC8180838B81AD
:1039D0009C8101979C838B8389819A81892F992768
:1039E0009A8389838981EB81FC8180838B819C818F
:1039F00001979C838B83EB81FC8110828B819C815E
:103A000001979C838B83EB81FC8180E880838B8191
:103A10009C8101979C838B83EB81FC8110828B813D
:103A20009C8101979C838B83EB81FC8182E0808366
:103A30008B819C8101979C838B83EB81FC8183E04C
:103A400080838B819C8101979C838B83EB81FC819C
:103A500084E080838B819C8101979C838B83EB81A5
:103A6000FC8185E080838B819C8101979C838B8383
:103A7000EB81FC8186E080838B819C8101979C8314
:103A80008B83EB81FC8187E080838B819C81019714
:103A90009C838B83EB81FC8188E080838B819C817C
:103AA00001979C838B83EB81FC8189E080838B81F0
:103AB0009C8101979C838B83EB81FC8180E18083D7
:103AC0008B819C8101979C838B83EB81FC8181E1BD
:103AD00080838B819C8101979C838B83EB81FC810C
:103AE00082E180838B819C8101979C838B83EB8116
:103AF000FC8183E180838B819C8101979C838B83F4
:103B0000EB81FC8184E180838B819C8101979C8384
:103B10008B83EB81FC8185E180838B819C81019784
:103B20009C838B83EB81FC8186E180838B819C81EC
:103B300001979C838B83EB81FC8187E180838B8160
:103B40009C8101979C838B83EB81FC8188E180833E
:103B50008B819C8101979C838B83EB81FC8189E124
:103B600080838B819C8101979C838B83EB81FC817B
:103B700080E280838B819C8101979C838B83EB8186
:103B8000FC8181E280838B819C8101979C838B8364
:103B9000EB81FC8182E280838B819C8101979C83F5
:103BA0008B83EB81FC8183E280838B819C810197F5
:103BB0009C838B838F8198859A8389838981EB810C
:103BC000FC8180838B819C8101979C838B8389817D
:103BD0009A81892F99279A8389838981EB81FC8136
:103BE00080838B819C8101979C838B83EB81FC81FB
:103BF00086E280838B819C8101979C838B83EB8100
:103C0000FC8187E280838B819C8101979C838B83DD
:103C1000EB81FC8188E280838B819C8101979C836E
:103C20008B83EB81FC8189E280838B819C8101976E
:103C30009C838B83EB81FC8180E380838B819C81DF
:103C400001979C838B83EB81FC8181E380838B8153
:103C50009C8101979C838B838B819C812896E2E0D9
:103C6000D2C3A0E0B0E0E6E3FEE1B1C3FBD0A09197
:103C70000F07B0911007CD91CDBFDD91DEBFFF9151
:103C8000EF91DF91CF91BF91AF919F918F917F91F4
:103C90006F915F914F913F912F911F910F91FF90E5
:103CA000EF90DF90CF90BF90AF909F908F907F90DC
:103CB0006F905F904F903F902F901F900F900FBE8E
:103CC0000F90089581E02096E2E09DC30F920FB619
:103CD000F8940F921F9211242F923F924F925F926D
:103CE0006F927F928F929F92AF92BF92CF92DF920C
:103CF000EF92FF920F931F932F933F934F935F93F6
:103D00006F937F938F939F93AF93BF93CF93DF93E3
:103D1000EF93FF93A0910F07B09110070DB60D928E
:103D20000EB60D9260D9A0910F07B0911007CD91FA
:103D3000CDBFDD91DEBFFF91EF91DF91CF91BF91BC
:103D4000AF919F918F917F916F915F914F913F9133
:103D50002F911F910F91FF90EF90DF90CF90BF9028
:103D6000AF909F908F907F906F905F904F903F901B
:103D70002F901F900F900FBE0F9008950F920FB6C7
:103D8000F8940F921F9211242F923F924F925F92BC
:103D90006F927F928F929F92AF92BF92CF92DF925B
:103DA000EF92FF920F931F932F933F934F935F9345
:103DB0006F937F938F939F93AF93BF93CF93DF9333
:103DC000EF93FF93A0910F07B09110070DB60D92DE
:103DD0000EB60D928091750790917607019790939A
:103DE0007607809375078091750790917607009705
:103DF00051F40E94C00080917307909174079093D2
:103E000076078093750712D8882309F0ECD8A09123
:103E10000F07B0911007CD91CDBFDD91DEBFFF91AF
:103E2000EF91DF91CF91BF91AF919F918F917F9152
:103E30006F915F914F913F912F911F910F91FF9043
:103E4000EF90DF90CF90BF90AF909F908F907F903A
:103E50006F905F904F903F902F901F900F900FBEEC
:103E60000F900895A6E0B0E0E7E3FFE1B0C280E480
:103E70009CE9A0E0B0E08B839C83AD83BE838B8103
:103E80009C81AD81BE81689415F8B695A7959795EC
:103E900087951694D1F78B839C83AD83BE838B81EA
:103EA0009C81AD81BE81880F991FAA1FBB1F880FFF
:103EB000991FAA1FBB1F880F991FAA1FBB1F880F1E
:103EC000991FAA1FBB1F880F991FAA1FBB1F880F0E
:103ED000991FAA1FBB1F9C01AD0180E092E1AAE7D8
:103EE000B0E0BC01CD0141D2DA01C9019093740761
:103EF000809373078091730790917407909376076E
:103F0000809375078B819C81AD81BE810197A1094A
:103F1000B1098B839C83AD83BE838B8189838B8125
:103F20009C81AD81BE81892F9A2FAB2FBB278B83BC
:103F30009C83AD83BE838B818A83EBE4F0E08A812E
:103F40008083EAE4F0E0898180838BE08983EEE47A
:103F5000F0E089818083E9E5F0E0808189838981CF
:103F600080618983E9E5F0E0898180832696E2E03B
:103F70004AC204DF1895A0E0B0E0E0ECFFE127C200
:103F8000A5E5B0E0E5E5F0E080818F788C93A8E2CC
:103F9000B0E0E8E2F0E08081877F8C93A8E2B0E0B7
:103FA000E8E2F0E0808180688C930FB6F8940F927D
:103FB000A5E5B0E0E5E5F0E0808180688C930F90A6
:103FC0000FBE8895A5E5B0E0E5E5F0E080818F774C
:103FD0008C932096E2E017C2A2E1B0E0E1EFFFE1AE
:103FE000F6C1988B8F877A8B698B80E090E0AAEF7F
:103FF000B4E48B879C87AD87BE876B857C858D8578
:104000009E8520E030E04AEF54E40E94A602DC01E5
:10401000CB018F839887A987BA876F817885898537
:104020009A8520E030E040E85FE30E94A004882306
:104030002CF481E090E09E838D833FC06F81788572
:1040400089859A8520E03FEF4FE757E40E944604B8
:1040500018164CF56B857C858D859E8520E030E0BB
:1040600040E251E40E94A602DC01CB01BC01CD017B
:104070000E94DC00DC01CB019E838D830FC088ECA5
:1040800090E09C838B838B819C810197F1F79C83CB
:104090008B838D819E8101979E838D838D819E81EF
:1040A000009769F7A2CF6F81788589859A850E94EC
:1040B000DC00DC01CB019E838D838D819E819A8300
:1040C000898389819A810197F1F79A8389838DCFBA
:1040D000A2E0B0E0EDE6F0E27AC19A8389838981BB
:1040E0009A810396E981FA8192838183E981FA8139
:1040F0008FEF9FEF9483838389819A810396E9816F
:10410000FA819683858389819A810396E981FA8170
:1041100090878783E981FA8110822296E2E073C159
:10412000A2E0B0E0E5E9F0E252C19A838983E98137
:10413000FA81118610862296E2E065C1A6E0B0E021
:10414000E3EAF0E244C19C838B837E836D83EB8141
:10415000FC81818192819A838983ED81FE818981AD
:104160009A8193838283E981FA8184819581ED81AB
:10417000FE8195838483E981FA810480F581E02DB5
:104180008D819E8193838283E981FA818D819E81D5
:1041900095838483ED81FE818B819C8191878087CB
:1041A000EB81FC8180818F5FEB81FC81808326968F
:1041B000E2E029C1A8E0B0E0EFEDF0E208C19E83A3
:1041C0008D8378876F83EF81F885808191819A83D1
:1041D000898389819A812FEF8F3F920739F4ED818E
:1041E000FE81878190859C838B8318C08D819E8101
:1041F00003969C838B8306C0EB81FC818281938133
:104200009C838B83EB81FC810280F381E02D2081F4
:10421000318189819A818217930770F7EB81FC8144
:1042200082819381EF81F88593838283EF81F88582
:104230000280F381E02D8F81988595838483EF81BF
:10424000F8858B819C8195838483EB81FC818F81B0
:10425000988593838283EF81F8858D819E819187F4
:104260008087ED81FE8180818F5FED81FE8180837B
:104270002896E2E0C8C0A4E0B0E0E0E4F1E2A7C024
:104280009C838B83EB81FC81808591859A838983D4
:10429000EB81FC81A281B381EB81FC8184819581DA
:1042A00015969C938E931497EB81FC81A481B58124
:1042B000EB81FC818281938113969C938E9312975C
:1042C000E981FA81218132818B819C81281739070C
:1042D00041F4EB81FC8184819581E981FA819283AB
:1042E0008183EB81FC8111861086E981FA818081CE
:1042F0008150E981FA818083E981FA818081249665
:10430000E2E081C0629FD001739FF001829FE00DC7
:10431000F11D649FE00DF11D929FF00D839FF00D44
:10432000749FF00D659FF00D9927729FB00DE11DF0
:10433000F91F639FB00DE11DF91FBD01CF011124CD
:104340000895AA1BBB1B51E107C0AA1FBB1FA617DC
:10435000B70710F0A61BB70B881F991F5A95A9F72E
:1043600080959095BC01CD010895A1E21A2EAA1B5B
:10437000BB1BFD010DC0AA1FBB1FEE1FFF1FA21715
:10438000B307E407F50720F0A21BB30BE40BF50B12
:10439000661F771F881F991F1A9469F7609570959B
:1043A000809590959B01AC01BD01CF0108952F929E
:1043B0003F924F925F926F927F928F929F92AF92B5
:1043C000BF92CF92DF92EF92FF920F931F93CF9302
:1043D000DF93CDB7DEB7CA1BDB0B0FB6F894DEBF99
:1043E0000FBECDBF09942A88398848885F846E84BF
:1043F0007D848C849B84AA84B984C884DF80EE8009
:10440000FD800C811B81AA81B981CE0FD11D0FB611
:10441000F894DEBF0FBECDBFED010895FC010590FD
:104420000020E9F7809590958E0F9F1F0895FB015E
:10443000DC0102C001900D9241505040D8F7089520
:10444000DC0101C06D9341505040E0F70895FC013C
:1044500001900020E9F7809590958E0F9F1F089599
:10446000AEE0B0E0E5E3F2E2B0CF8C0177FF02C04E
:1044700060E070E8615070407E836D831A83098329
:104480008EE08C83CE010196BA01A90110D02D8156
:104490003E8137FD09C0EF81F8852E173F070CF4E8
:1044A000F901E00FF11F10822E96E4E0AACFABE0F5
:1044B000B0E0ECE5F2E27BCF3C012B015A01FC01BC
:1044C00017821682838181FD03C06FEF7FEFB9C130
:1044D0009AE0892E1E010894211C311CF3012381CE
:1044E000F20123FD859123FF81912F01882309F497
:1044F000A5C1853239F423FD859123FF81912F01D8
:10450000853221F490E0B301B6D1E8CF982FFF2493
:10451000EE249924FFE1FF15D0F09B3269F09C3224
:1045200028F4903259F0933291F40EC09D3249F044
:10453000903369F441E024C052E0F52A84E0F82A7F
:1045400028C098E0F92A25C0E0E1FE2A22C0F7FC45
:1045500029C0892F80538A3070F4F6FE05C0989CDC
:10456000902C1124980E15C0E89CE02C1124E80E24
:10457000F0E2FF2A0EC09E3229F4F6FC5FC140E44F
:10458000F42A07C09C3619F450E8F52A02C0983680
:1045900049F4F20123FD959123FF91912F01992375
:1045A00009F0B8CF892F8554833018F080528330BA
:1045B00038F444E050E0A40EB51E5FE359830FC009
:1045C000933631F0933779F0933509F052C01FC01C
:1045D000F5018081898342E050E0A40EB51E61019F
:1045E00001E010E011C0F501C080D180F6FC03C0ED
:1045F0006FEF7FEF02C0692D70E042E050E0A40E43
:10460000B51EC6012DD18C015FE7F52213C0F5015F
:10461000C080D180F6FC03C06FEF7FEF02C0692D30
:1046200070E042E050E0A40EB51EC6010ED18C0130
:1046300050E8F52AF3FE06C018C080E290E0B3010E
:104640001AD1EA948E2D90E008171907B0F30DC027
:10465000F601F7FC8591F7FE81916F0190E0B301BF
:104660000AD1E110EA94015010400115110581F7BB
:10467000E2C0943611F0993661F5F7FE08C0F501F5
:10468000208131814281538184E090E00AC0F501AC
:10469000808191819C01442737FD4095542F82E011
:1046A00090E0A80EB91E9FE6F92257FF09C0509569
:1046B0004095309521953F4F4F4F5F4FE0E8FE2AE0
:1046C000CA01B901A1012AE030E001D1D82ED218E7
:1046D0003FC0953729F41F2D1F7E2AE030E01DC012
:1046E0001F2D197F9F3661F0903720F4983509F01F
:1046F000A5C00FC0903739F0983709F09FC004C0AB
:1047000028E030E00AC0106114FD146020E130E0C0
:1047100004C014FD166020E132E017FF08C0F50167
:10472000608171818281938144E050E008C0F5018D
:1047300080819181BC0180E090E042E050E0A40ED5
:10474000B51EA101C4D0D82ED2188FE7F82EF122C1
:10475000F6FE0BC05EEFF522D91438F4F4FE07C064
:10476000F2FC05C08FEEF82202C01D2D01C0192DEC
:10477000F4FE0DC0FE01ED0DF11D8081803319F4B2
:1047800099EEF92208C01F5FF2FE05C003C08F2D0D
:10479000867809F01F5F0F2DF3FC13C0F0FE0EC0EA
:1047A0001E1510F09D2C0AC09D2C9E0C911A1E2DDA
:1047B00005C080E290E0B3015ED01F5F1E15C8F314
:1047C00004C01E1510F4E11A01C0EE2404FF0EC04F
:1047D00080E390E0B3014FD002FF1BC001FD03C096
:1047E00088E790E00EC088E590E00BC0802F8678C7
:1047F00081F001FF02C08BE201C080E2F7FC8DE294
:1048000090E0B30138D005C080E390E0B30133D02D
:104810009A94D914C8F3DA94F101ED0DF11D808159
:1048200090E0B30128D0DD20B1F705C080E290E030
:10483000B30121D0EA94EE20C9F750CEF30166818E
:104840007781CB012B96E2E1CECDFC010590615042
:1048500070400110D8F7809590958E0F9F1F089596
:10486000FC016150704001900110D8F7809590953F
:104870008E0F9F1F08950F931F93CF93DF938C018B
:10488000EB018B8181FF1BC082FF0DC02E813F8118
:104890008C819D812817390764F4E881F98101939F
:1048A000F983E88306C0E885F985802F0995892B6F
:1048B00031F48E819F8101969F838E8302C00FEF1A
:1048C0001FEFC801DF91CF911F910F910895FA0159
:1048D000AA27283051F1203181F1E8946F936E7F3F
:1048E0006E5F7F4F8F4F9F4FAF4FB1E03ED0B4E030
:1048F0003CD0670F781F891F9A1FA11D680F791F71
:104900008A1F911DA11D6A0F711D811D911DA11D81
:1049100020D009F468943F912AE0269F1124301991
:10492000305D3193DEF6CF010895462F4770405D2C
:104930004193B3E00FD0C9F7F6CF462F4F70405DDB
:104940004A3318F0495D31FD4052419302D0A9F736
:10495000EACFB4E0A6959795879577956795BA9530
:10496000C9F700976105710508959B01AC010A2EF6
:1049700006945795479537952795BA95C9F7620FCD
:0E498000731F841F951FA01D0895F894FFCF8C
:10498E004D6561737572656D656E745461736B0000
:10499E00426C696E6B5461736B004475737453652E
:1049AE006E736F720075672F6D330049444C45006E
:1049BE000000000000000000F905000000004407A0
:1049CE004B07C606FE06D0060000000081079307BF
:1049DE00870789076A07000000001F080D089A075D
:1049EE000000000041082F080000000034092509CE
:1049FE00AA080000000085097E0A7000010001F47B
:084A0E00017A0085000004009C
:00000001FF
